:100000000EC028C027C026C025C024C023C022C0DF
:1000100021C020C01FC01EC01DC01CC01BC0112499
:100020001FBECFE5D2E0DEBFCDBF10E0A0E6B0E05E
:10003000E8E5F4E002C005900D92AA37B107D9F7C0
:1000400020E0AAE7B0E001C01D92A239B207E1F7B3
:10005000F4D000C2D5CFB99AC19887EA91E601974A
:10006000F1F700C00000BA9AC29887EA91E60197BA
:10007000F1F700C00000BB9AC39887EA91E60197A8
:10008000F1F700C00000BC9AC49887EA91E6019796
:10009000F1F700C0000088B3826188BB88B38C6030
:1000A00088BB87EA91E60197F1F700C00000C1988C
:1000B000C298C398C49887EA91E60197F1F700C007
:1000C000000088B3826188BB88B38C6088BB87EAF4
:1000D00091E60197F1F700C00000C198C298C3985B
:1000E000C49887EA91E60197F1F700C0000088B351
:1000F000826188BB88B38C6088BB08958230C1F16F
:10010000D8F481111CC088B3826188BB88B38C602D
:1001100088BBB99AC19884E98ABD8EEE89BD2FE962
:1001200086E891E0215080409040E1F700C0000057
:1001300080E98ABDC19A0895833099F1089588B302
:10014000826188BB88B38C6088BBBA9AC29884E904
:100150008ABD8EEE89BD2FE986E891E0215080406E
:100160009040E1F700C0000080E98ABDC29A08957E
:1001700088B3826188BB88B38C6088BBBB9AC39804
:1001800084E98ABD8EEE89BD2FE986E891E0215091
:1001900080409040E1F700C0000080E98ABDC39A2A
:1001A000089588B3826188BB88B38C6088BBBC9A91
:1001B000C49884E98ABD8EEE89BD2FE986E891E076
:1001C000215080409040E1F700C0000080E98ABDE6
:1001D000C49A089520916000822F880F880F880F9D
:1001E000282790917B0081E0890F80937B00822FEC
:1001F0008295869587708227969596958927809314
:10020000600090E0880F991F880F991F6FEF70E0D2
:10021000FAD0862F089598E0961B90699ABD815078
:1002200089BD2FE986E891E0215080409040E1F7B8
:1002300000C0000080E98ABD0895C4E9DEEE10E93F
:1002400003E0CC24C394B998B199FECF04DFB89AE7
:100250002FEF30E742E0215030404040E1F700C04E
:100260000000B8DF80937E0010927A008FEF90E755
:10027000E2E081509040E040E1F700C0000092E0F1
:10028000D92EE0907A00F12CA5DFF701E258FF4F5C
:1002900080838EE7A82E80E0B82EF12CE12CF501AA
:1002A00081915F012BDFFFE926E831E0F15020402A
:1002B0003040E1F700C000004FEFE41AF40A8091EB
:1002C0007A008E151F045CF7B998BA98BB98BC9851
:1002D00030E020E086B38E718E31E1F386B38E710B
:1002E0008A3109F459C008F045C08E3009F46CC059
:1002F000863109F45DC0F901E258FF4F9081809189
:100300007C00981709F46CC0CABDD9BDEFE9F6E8C6
:1003100021E0E150F0402040E1F700C000001ABDAC
:10032000CABDD9BD3FE946E881E031504040804038
:10033000E1F700C000001ABDCABDD9BD9FE9E6E8DB
:10034000F1E09150E040F040E1F700C000001ABD3C
:1003500091E0EFEFF0E722E0E150F0402040E1F7DC
:1003600000C0000080917A008F5F80937A00911125
:100370006ACF87CF8C3109F0BECF10927C00CABD06
:10038000D9BD8FE996E8E1E081509040E040E1F787
:1003900000C000001ABDAFCFC0927C00CABDD9BD5D
:1003A000FFE946E881E0F15040408040E1F7F0CFBE
:1003B000D0927C00CABDD9BD9FE9E6E8F1E091503A
:1003C000E040F040E1F7E4CF00937C00CABDD9BD26
:1003D0004FE986E891E0415080409040E1F7D8CF66
:1003E0004FE986E891E0415080409040E1F700C03D
:1003F00000002F5F3F4F80917A00821713060CF0A8
:1004000069CF90E0A6CF97FB072E16F4009406D094
:1004100077FD08D00BD007FC05D03EF49095819570
:100420009F4F0895709561957F4F0895AA1BBB1B40
:1004300051E107C0AA1FBB1FA617B70710F0A61BE4
:10044000B70B881F991F5A95A9F780959095BC0105
:08045000CD010895F894FFCFDF
:10045800AA7F0086008E0096009F00A900B300BE08
:0A04680000C900D500E100EF00001C
:00000001FF
