:100000000C9434000C9451000C9451000C94510049
:100010000C9451000C9451000C9451000C9451001C
:100020000C9451000C9451000C9451000C9451000C
:100030000C9451000C9451000C9451000C945100FC
:100040000C9451000C9451000C9451000C945100EC
:100050000C9451000C9451000C9451000C945100DC
:100060000C9451000C94510011241FBECFEFD8E026
:10007000DEBFCDBF11E0A0E0B1E0EEEEF3E002C0E4
:1000800005900D92A230B107D9F721E0A2E0B1E0CE
:1000900001C01D92AA31B207E1F70E942C010C9415
:1000A000F5010C940000219A29982FEF81EE94E03D
:1000B000215080409040E1F700C00000229A2A9829
:1000C0002FEF81EE94E0215080409040E1F700C096
:1000D0000000239A2B982FEF81EE94E0215080406E
:1000E0009040E1F700C00000249A2C982FEF81EE99
:1000F00094E0215080409040E1F700C0000085B1BD
:10010000826185B985B18C6085B92FEF81EE94E06D
:10011000215080409040E1F700C0000029982A98C3
:100120002B982C982FEF81EE94E021508040904046
:10013000E1F700C0000085B1826185B985B18C60AE
:1001400085B92FEF81EE94E0215080409040E1F797
:1001500000C0000029982A982B982C982FEF81EE48
:1001600094E0215080409040E1F700C0000085B14C
:10017000826185B985B18C6085B90895809100014F
:1001800098E0899F90011124982F922720910201D5
:1001900081E0820F80930201892F82958695877076
:1001A00089272695269582278093000124E0829F47
:1001B000C00111246FEF70E00E94CD01862F0895D9
:1001C00092E494BD94E095BD87BD2FEF83EC99E058
:1001D000215080409040E1F700C0000014BC089519
:1001E000823001F178F4811110C085B1826185B946
:1001F00085B18C6085B9219A29988FE00E94E00032
:10020000299A08958330D9F0089585B1826185B91E
:1002100085B18C6085B9229A2A9884E10E94E00019
:100220002A9A089585B1826185B985B18C6085B9B6
:10023000239A2B9886E40E94E0002B9A089585B1BA
:10024000826185B985B18C6085B9249A2C9888E73C
:100250000E94E0002C9A089511E003E092E0F92E4C
:1002600021981999FECF0E945300569A2FEF3FE034
:1002700087E2215030408040E1F700C000000E943A
:10028000BE0080930601109203019FEFEFE0F7E2BA
:100290009150E040F040E1F700C00000C091030140
:1002A000D0E00E94BE00CA5FDE4F888386E0C82E81
:1002B00081E0D82ED0E0C0E0F60181916F0190E09E
:1002C0000E94F000FFEF29E638E1F1502040304075
:1002D000E1F700C000002196809103018C171D06F4
:1002E0005CF72198229823982498D0E0C0E083B14D
:1002F0008E718E31E1F383B18E718A3181F138F5DF
:100300008E30A9F1863179F1FE01EA5FFE4F9081CE
:1003100080910401981779F18CED0E94E0008CED3A
:100320000E94E0008CED0E94E00091E0FFEF2FE0E2
:1003300037E2F15020403040E1F700C000008091EA
:1003400003018F5F8093030191118ACFA7CF8C3176
:10035000D9F6109204018FE00E94E000D5CF1093EF
:10036000040184E1F9CFF092040186E4F5CF009313
:10037000040188E7F1CF8FEF99E6E8E181509040E2
:10038000E040E1F700C000002196809103018C1746
:100390001D060CF0ACCF90E0C9CF97FB072E16F4EA
:1003A000009407D077FD09D00E94E10107FC05D039
:1003B0003EF4909581959F4F0895709561957F4F7C
:1003C0000895AA1BBB1B51E107C0AA1FBB1FA6179C
:1003D000B70710F0A61BB70B881F991F5A95A9F7EE
:0E03E00080959095BC01CD010895F894FFCF53
:0203EE00AA0063
:00000001FF
