:100000000C9434000C9451000C9451000C94510049
:100010000C9451000C9451000C9451000C9451001C
:100020000C9451000C9451000C9451000C9451000C
:100030000C9451000C9451000C9451000C945100FC
:100040000C9451000C9451000C9451000C945100EC
:100050000C9451000C9451000C9451000C945100DC
:100060000C9451000C94510011241FBECFEFD8E026
:10007000DEBFCDBF11E0A0E0B1E0E4E2F4E002C0F9
:1000800005900D92A230B107D9F721E0A2E0B1E0CE
:1000900001C01D92AE31B207E1F70E9434010C9409
:1000A00010020C940000219A29982FEF85EA9EE017
:1000B000215080409040E1F700C00000229A2A9829
:1000C0002FEF85EA9EE0215080409040E1F700C08C
:1000D0000000239A2B982FEF85EA9EE02150804064
:1000E0009040E1F700C00000249A2C982FEF85EA99
:1000F0009EE0215080409040E1F700C0000085B1B3
:10010000826185B985B18C6085B92FEF89E698E168
:10011000215080409040E1F700C0000029982A98C3
:100120002B982C982FEF85EA9EE02150804090403C
:10013000E1F700C0000085B1826185B985B18C60AE
:1001400085B92FEF85EA9EE0215080409040E1F78D
:1001500000C0000029982A982B982C982FEF85EA48
:100160009EE0215080409040E1F700C0000085B142
:10017000826185B985B18C6085B90895823061F15D
:10018000A8F4811116C085B1826185B985B18C60F2
:1001900085B9219A29982FEF83ED90E32150804073
:1001A0009040E1F700C00000299A0895833039F1AA
:1001B000089585B1826185B985B18C6085B9229A2F
:1001C0002A982FEF83ED90E3215080409040E1F793
:1001D00000C000002A9A089585B1826185B985B171
:1001E0008C6085B9239A2B982FEF83ED90E32150F3
:1001F00080409040E1F700C000002B9A089585B13F
:10020000826185B985B18C6085B9249A2C982FEFCD
:1002100083ED90E3215080409040E1F700C0000062
:100220002C9A08958091000198E0899F90011124F3
:10023000982F92272091020181E0820F8093020182
:10024000892F8295869587708927269526958227FE
:100250008093000124E0829FC00111246FEF70E0C1
:100260000E94E801862F089584B184B911E003E06B
:1002700082E0F82E21981999FECF0E9453002FEFAB
:100280008FE097E2215080409040E1F700C00000ED
:100290000E94120180930A0110920301EFEFFFE028
:1002A00027E2E150F0402040E1F700C00000C0919B
:1002B0000301D0E00E941201C65FDE4F88838FEFFA
:1002C00099E6E8E181509040E040E1F700C000008D
:1002D0001092090110920801809108019091090182
:1002E00020910301281719061CF5219822982398BC
:1002F0002498109205011092040140E0209104011D
:100300003091050180910301821713065CF59FEF80
:10031000EFE0F7E29150E040F040E1F700C000006C
:10032000809103018F5F809303014111A3CFBFCF61
:10033000865F9E4FFC01808190E00E94BE00FFEF2F
:1003400029E688E1F15020408040E1F700C000003C
:100350008091080190910901019690930901809381
:100360000801BACF83B18E718E31E1F383B18E7102
:100370008A3129F1F8F48E3041F1863119F1265F86
:100380003E4FF901908180910601981341E0FFEF03
:1003900029E688E1F15020408040E1F700C00000EC
:1003A000809104019091050101969093050180933D
:1003B0000401A4CF8C3119F710920601E0CF1093FD
:1003C0000601DDCFF0920601DACF00930601D7CF08
:1003D00097FB072E16F4009407D077FD09D00E94F2
:1003E000FC0107FC05D03EF4909581959F4F089540
:1003F000709561957F4F0895AA1BBB1B51E107C003
:10040000AA1FBB1FA617B70710F0A61BB70B881FA4
:10041000991F5A95A9F780959095BC01CD01089533
:04042000F894FFCF7E
:02042400AA002C
:00000001FF
